:100000000C9434000C943E000C943E000C943E0082
:100010000C943E000C943E000C943E000C943E0068
:100020000C943E000C943E000C943E000C943E0058
:100030000C943E000C943E000C943E000C943E0048
:100040000C943E000C943E000C943E000C943E0038
:100050000C943E000C943E000C943E000C943E0028
:100060000C943E000C943E0011241FBECFEFD8E04C
:10007000DEBFCDBF0E9440000C9457000C940000DE
:100080008FEF8AB91BB882E084BD89EF87BD16BCAB
:1000900083E085BD22E031E089EE93E0A99BFECFAD
:1000A00025BB0197D9F78BB183278BB9F5CFF8948E
:0200B000FFCF80
:00000001FF
