:100000000C943C000C9459000C9459000C94590029
:100010000C9459000C9459000C9459000C945900FC
:100020000C9459000C9459000C9459000C945900EC
:100030000C9459000C9459000C9459000C945900DC
:100040000C9459000C9459000C9459000C945900CC
:100050000C9459000C9459000C9459000C945900BC
:100060000C9459000C94590054055F0569057405FA
:1000700087058E059505510511241FBECFEFD8E0E9
:10008000DEBFCDBF11E0A0E0B1E0ECE7F3E102C0DC
:1000900005900D92AA32B107D9F721E0AAE2B1E0AA
:1000A00001C01D92A23DB207E1F70E946B030C94C0
:1000B000BC090C94000010922A0108950E94570474
:1000C00094E6899F90011124A1E8B0E80E94840978
:1000D000880F892F881F990B919580932A01089585
:1000E00080912A01089540E060EA76E881E090E09E
:1000F0000E9446080E943F0810922B0108954091EB
:100100002B0160EA76E881E090E00E9446080895BD
:1001100080932B010895FC01DB019081992329F044
:1001200031969D9391919111FCCF1C9208958091ED
:100130003A018130E9F40E944E060E948D0660E08B
:1001400080E00E949E0684E391E00E947E0660E0CB
:1001500081E00E949E068EE291E00E947E066FE0A2
:1001600081E00E949E068CE291E00E947E06089546
:100170000E945506089510923A0164E371E089E007
:1001800091E00E948B006EE271E089E091E00E94B4
:100190008B006CE271E089E091E00E948B000E948C
:1001A000970008950E949700089581E080933A0196
:1001B000089510923A01089564E371E00E948B0063
:1001C00008956EE271E00E948B0008956CE271E088
:1001D0000E948B00089508950E94BA04869581704C
:1001E00090E008950E94BA0482FB882780F98093EA
:1001F0003D0110923E0110923C0110923B01089586
:10020000CF93DF930E94BA0482FB882780F9C82F1E
:1002100080E0D82F80913D0190913E01C817D90709
:1002200031F081E090E090933C0180933B01D093CA
:100230003E01C0933D01DF91CF91089580913D0132
:1002400090913E01089580913B0190913C01089569
:1002500010923C0110923B01089508950E94BA0447
:1002600091E08927817090E008958091410181306B
:1002700071F480913F01909140010E943F0740E05E
:1002800050E06FEF83E090E00E942607089540E081
:1002900050E06FEF80E090E00E94260740E050E0E1
:1002A0006FEF81E090E00E94260740E050E06FEFA2
:1002B00082E090E00E94260740E050E06FEF83E08C
:1002C00090E00E942607089510924101109240018B
:1002D00010923F010E94350108950E943501089552
:1002E00081E080934101089510924101089590E0CA
:1002F0009093400180933F0108950F931F93CF93F4
:10030000DF930E942E018C010E94EC00EC010E9400
:100310007000219719F0012B21F402C080E001C088
:1003200080E0DF91CF911F910F91089510924B01C2
:1003300010924A011092420110924301109244011E
:100340001092450110924601109247011092480107
:100350001092490180E00E9488000E9474010E946E
:10036000D90008950E9498080E94EB030E94C407D8
:100370000E94A9060E940E050E9479040E9414049E
:100380000E9464010E94BB000E942D010E94EB00AC
:100390000E94F2000E945B000E9473000E9496017E
:1003A0000895BF92CF92DF92EF92FF920F931F9327
:1003B000CF93DF930E942E01EC01892B29F482E078
:1003C00091E00E94E60004C084E091E00E94E60013
:1003D00080914A0190914B0182309105A9F128F456
:1003E000009759F0019789F076C08330910509F4A0
:1003F00049C0049709F45BC06EC080E00E94880089
:100400000E9474010E94D90066C080E00E948800AA
:100410000E9474010E94D50089E091E00E94DC00F6
:1004200086E091E00E94E100CD2B09F454C002E483
:1004300011E028E833E140E050E060E070E080E067
:1004400090E00E94D50847C080E00E9488000E948A
:1004500070010E94D50089E091E00E94DC008AE0F2
:1004600091E00E94E100CD2BB1F102E411E020E126
:1004700037E240E050E060E070E080E090E00E9411
:10048000D50829C00E947D01C82F0E9488000E94C3
:1004900070018C2F0E9477010E94D50080E191E0CD
:1004A0000E94DC0086E191E00E94E10014C00E94FD
:1004B0007D01C82F0E9488000E9470018C2F0E942D
:1004C00077010E94D50080E191E00E94DC0089E183
:1004D00091E00E94E1000E942E017C010E94EC004C
:1004E0006C010E947D01B82E0E941E018C010E94A9
:1004F0002301EC010E942801209142013091430127
:10050000409144015091450160914601709147012D
:1005100080914801909149010E94010920914A016E
:1005200030914B012230310509F464C038F42115B3
:10053000310569F02130310581F1AAC02330310540
:1005400009F476C02430310509F48BC0A1C021978D
:1005500009F09EC00130110509F09AC0EF2851F44E
:10056000CA94CD2839F483E090E090934B018093B6
:100570004A018EC002E411E028E833E140E050E097
:1005800060E070E080E090E00E94D50881E090E0BB
:1005900090934B0180934A017BC0219719F501305C
:1005A000110509F075C0EF2851F4CA94CD2839F42B
:1005B00083E090E090934B0180934A0169C002E48C
:1005C00011E020E137E240E050E060E070E080E0E0
:1005D00090E00E94D50882E090E090934B018093D8
:1005E0004A0156C0019709F053C010924B01109276
:1005F0004A014EC02197A9F40130110509F048C005
:10060000EF2851F4CA94CD2839F483E090E0909318
:100610004B0180934A013CC010924B0110924A0159
:1006200037C00197A9F510924B0110924A0130C0D2
:10063000219769F40130110559F5EF2849F5CA945D
:10064000CD2831F510924B0110924A0121C083E16F
:100650008B15F0F484E090E090934B0180934A0175
:1006600017C0219769F40130110591F4EF2881F446
:10067000CA94CD2869F410924B0110924A0108C027
:10068000B11006C083E090E090934B0180934A0143
:10069000DF91CF911F910F91FF90EF90DF90CF905E
:1006A000BF9008950E9424040E948B040E94B10808
:1006B0000E9400010E945E000E94D1010E94D200AF
:1006C0000E946D010E947F000E94D5060E94B50520
:1006D0000E94EF0708950E94B2010E9452030E94F7
:1006E0003309FBCF20915401880F991F880F991F60
:1006F000FC01EA5AFE4FE20FF11D8081803E40F47A
:10070000813A40F4813640F4813240F482E007C0FF
:1007100081E005C080E103C088E001C084E09091E1
:100720005001891731F08093500181E080934F018F
:10073000089590914F019923D9F0915090934F01D2
:1007400091112EC08093530121E030E0309352018B
:1007500020935101813039F08CED95E090934E015A
:1007600080934D01089510924E0110924D0108950D
:1007700080914D0190914E01009791F001979093D7
:100780004E0180934D01892B59F48091530180686B
:100790008093530181E090E0909352018093510146
:1007A0000895880F991F880F991FFC01EA5AFE4F80
:1007B00020819181892F90E0820F911D2281820FEB
:1007C000911D2381820F911D96958795969587950A
:1007D00080934C010895E6E5F1E0108211821282C7
:1007E0001382148215821682178281E0809355014C
:1007F0001092540110925301109252011092510123
:100800001092500110924F0110924E0110924D0122
:1008100010924C0180E280937C0087E880937A00FC
:1008200080E380937E000895ACE7B0E08C91807FF8
:10083000E0915501F0E0E35EFE4F9081892B8C93AF
:1008400087ED80937A00089580917A0086FD2EC00E
:10085000809155012091790090E030915401FC0184
:10086000EE0FFF1FEE0FFF1FEA5AFE4FE30FF11DC1
:100870002083FC01EE0FFF1FE15EFE4F0190F0812F
:10088000E02D09958091550181110BC08091540193
:10089000833011F08F5F01C080E08093540181E0CC
:1008A00001C08150809355010E94140408958091E5
:1008B0004C01E09100014E2F50E090E08417950725
:1008C00008F4CA0160910101262F30E082179307D6
:1008D00008F49C01241B350B4FEF429FC001439F3E
:1008E000900D112470E06E1B71090E944809862F3B
:1008F000089587B1807F87B988B18F6088B91092D9
:100900006201109261011092600110925F0181E01A
:1009100080935E01089586B18F7090915E01992356
:1009200051F010925E019FE090936201809361010B
:1009300080936001089590916001981729F0809349
:10094000600110925F0109C080915F01882329F046
:10095000815080935F0181110CC090916001809162
:100960006101892720916201822B8093620190931B
:1009700061010895809161010895880F991F880F82
:10098000991F880F991F009741F020E030E0000088
:100990002F5F3F4F28173907D1F70895CF939BB1A9
:1009A0008F70907DC82FC92B8C2F8062CBB98BB9EB
:1009B00081E090E00E94BD04CBB981E090E00E940C
:1009C000BD04CF9108955C988F700E94CE0482E39D
:1009D00090E00E94BD040895CF93C82F5C9A829541
:1009E0008F700E94CE048C2F8F700E94CE0482E301
:1009F00090E00E94BD04CF910895CF93C82F5C98DA
:100A000082958F700E94CE048C2F8F700E94CE042E
:100A100082E390E00E94BD04CF910895CF93DF93CD
:100A20008AB18F638AB98BB1807C8BB91092AB018C
:100A30001092AA0181E090E09093A9018093A8010F
:100A40001092A5011092A4011092A301A3E6B1E0B7
:100A5000C3E8D1E0E3E7F1E080E28D938993AE173C
:100A6000BF07D9F7A3E9B1E023E831E080E2819341
:100A70008D93E217F307D9F71092A70182E38093D1
:100A8000A601DF91CF9108952091A701822F90E0D8
:100A90008830910508F061C0FC01EC5CFF4F0C94BC
:100AA0007E0981E090E05EC08091A6018150809334
:100AB000A60121E0811120E080E090E053C083E0B6
:100AC0000E94E30484E08093A60122E080E090E0AD
:100AD00049C08091A60181508093A601811140C038
:100AE00023E080E090E03EC083E00E94E30483E0E6
:100AF0000E94E30482E00E94E30488E20E94FD0475
:100B000088E00E94FD0424E080E090E02BC081E0BA
:100B10000E94FD0425E080E090E024C086E00E9471
:100B2000FD0426E080E090E01DC08091A801909136
:100B3000A9019093AB018093AA01892B39F488E035
:100B40000E94FD0427E081E090E00CC08CE00E9450
:100B5000FD0427E081E090E005C080E090E002C065
:100B600080E090E02093A70108950F931F93CF9307
:100B7000DF938091A701873019F00E94440589C056
:100B80008091A301811134C043E651E0C3E8D1E074
:100B900003E811E0BE019A010DC091918D91981367
:100BA00070C0E217F307C9F7605F7F4F02171307A2
:100BB00009F44EC0D9019C91FB018081981361C05A
:100BC000F9013196DB011196205F3F4FE6CF899105
:100BD000DA018D93AD01CE17DF07C9F7A3E7B1E0C6
:100BE00023EA31E081918D93E217F307D9F730C002
:100BF000C091A401C03160F08C2F80518031E8F7A2
:100C000020EF2C0F22952F702F5F8C2F8F7002C03A
:100C10008C2F20E030E0F901E295F295F07FFE277D
:100C2000E07FFE27ED59FE4FE80FF11DD081F9015D
:100C3000ED5DFE4F9081890F0E94FD048D2F0E9473
:100C4000EC04CF5FC093A401C03211F41092A30151
:100C50008091A8019091A9012091AA013091AB0146
:100C600028173907B1F09093AB018093AA01892B23
:100C700021F488E00E94FD040CC08CE00E94FD0479
:100C800008C081E08093A3011092A401E3E9F1E0A0
:100C90009ECFDF91CF911F910F91089581E090E059
:100CA0009093A9018093A80108951092A901109230
:100CB000A80108952091A501203160F0922F905154
:100CC0009031E8F7E0EFE20FE295EF70EF5F922FDF
:100CD0009F7002C0922FE0E030E1E39FF001112409
:100CE000ED57FE4FE90FF11D80832F5F203218F47E
:100CF0002093A50108951092A5010895CF93DF9345
:100D0000EC018881882331F021960E945A0689914E
:100D10008111FBCFDF91CF910895A3E8B1E0E3E922
:100D2000F1E080E28D93AE17BF07E1F723EA31E0EF
:100D300080E28193E217F307E1F70895811181E0E2
:100D40008295807F603108F06FE0680F6093A501A5
:100D50000895E5EBF1E021EC31E090EC83E0908345
:100D6000818312823396E217F307C9F71092B40118
:100D7000ECEAF1E011821082158214821382128251
:100D8000178216828BB18F738BB985B18C7F85B931
:100D900085B1886385B98AB1806C8AB984B1836072
:100DA00084B984B1886384B908958091B40188239B
:100DB00011F0815001C083E08093B40190E0FC0108
:100DC000EE0FFF1FE80FF91FEB54FE4F30816181DA
:100DD0002091AD01213029F5ECEAF1E046815781FF
:100DE0000480F581E02D4E175F0768F0E091AC01BB
:100DF000F0E0082E02C0F595E7950A94E2F7E0FFCF
:100E000002C063E030EC4115510529F44091AE0178
:100E10005091AF0102C0415051095093B30140932A
:100E2000B20145B1486345B94BB14F73342B3BB95F
:100E300025B12C7F262B25B925B1277CFC01EB5D44
:100E4000FE4F9081822F892B85B90895413051053D
:100E500011F428E001C020E0FC01EE0FFF1F8E0F0F
:100E60009F1FFC01EB54FE4F228320E4629FC001D0
:100E700011248083669566956370618308950F934E
:100E80001F93CF93DF93EC019C0136952795369500
:100E9000279536952795A5ECB0E20E9484098C0130
:100EA000129502950F7001271F70012740E050E056
:100EB000602F83E090E00E94260728EE33E0029F37
:100EC000C001039F900D129F900D11249E01281BBD
:100ED000390B3695279536952795ABE7B4E10E94F7
:100EE00084099695879540E050E0682F82E090E075
:100EF0000E9426079E013695279536952795ABE7E4
:100F0000B4E10E9484099695879544E6489F900134
:100F1000499F300D1124CE01821B930B9C01ADEC37
:100F2000BCEC0E9484099695879596958795969531
:100F3000879540E050E0682F81E090E00E9426070E
:100F40009E01ADECBCEC0E94840996958795969520
:100F50008795969587959C01220F331F880F991FBF
:100F6000880F991F880F991F820F931FBE01681B5E
:100F7000790B40E050E080E090E00E942607DF918E
:100F8000CF911F910F9108951092C9011092C8013D
:100F90001092C7011092C60180E593EC9093C501B1
:100FA0008093C4019093C3018093C2011092C10148
:100FB00023E320938000E1E8F0E028E12083109211
:100FC00085001092840090938B0080938A00909308
:100FD000890080938800229A8BE180830895809114
:100FE000C101813049F51092C1018091C8019091F1
:100FF000C901892B89F48091C2019091C30190931A
:101000008900809388008091C2019091C3019093E0
:101010008B0080938A0010C08091C2019091C3011F
:1010200090938900809388008091C4019091C501BC
:1010300090938B0080938A008091C6019091C701A4
:101040002091C8013091C90128173907B9F0909350
:10105000C9018093C801892B49F48091C201909104
:10106000C30190938B0080938A0008958091C401FE
:101070009091C50190938B0080938A00089581E040
:1010800090E09093C7018093C6010895CF92DF92BC
:10109000EF92FF920F931F93042F10E020E030E0B7
:1010A000C62ED72EE82EF92E81E4C8168DE0D8067C
:1010B00083E0E806F10448F00F2EF0E4CF2EFDE0C7
:1010C000DF2EF3E0EF2EF12CF02DF694E794D79479
:1010D000C794F694E794D794C794D092C301C09272
:1010E000C201A9019801253631054105510520F0BD
:1010F00024E630E040E050E0C701B6018827992798
:101100000E94380924E630E040E050E00E945C098B
:10111000C21AD30AD092C501C092C40181E0809363
:10112000C1011F910F91FF90EF90DF90CF90089534
:101130001092CA011092CB011092CC011092CD01F5
:101140001092CE011092CF011092D0011092D101D5
:1011500082E084BD15BC16BC89EF87BD83E085BDE8
:1011600008952091CA013091CB014091CC0150915A
:10117000CD016091CE017091CF018091D00190910D
:10118000D101A1E00E94A7092093CA013093CB01AD
:101190004093CC015093CD016093CE017093CF0169
:1011A0008093D0019093D1010895AF92BF92CF92D6
:1011B000DF92EF92FF920F931F93F801A090CA0164
:1011C000B090CB01C090CC01D090CD01E090CE0189
:1011D000F090CF010091D0011091D1010E949E09A1
:1011E000208331834283538364837583868397830B
:1011F0001F910F91FF90EF90DF90CF90BF90AF9035
:101200000895AF92BF92CF92DF92EF92FF920F9329
:101210001F93A22EB32EC42ED52EE62EF72E082F06
:10122000192FE1E0F0E02091CA013091CB0140910B
:10123000CC015091CD016091CE017091CF01809190
:10124000D0019091D1010E94B30909F010F4E0E0BF
:10125000F0E0CF011F910F91FF90EF90DF90CF90C2
:10126000BF90AF900895A99BFECF82E085BB089503
:10127000DB018F939F930E949309BF91AF91A29F2F
:10128000800D911DA39F900DB29F900D1124089584
:10129000AA1BBB1B51E107C0AA1FBB1FA617B7079C
:1012A00010F0A61BB70B881F991F5A95A9F78095B8
:1012B0009095BC01CD010895A1E21A2EAA1BBB1B7B
:1012C000FD010DC0AA1FBB1FEE1FFF1FA217B30712
:1012D000E407F50720F0A21BB30BE40BF50B661F28
:1012E000771F881F991F1A9469F7609570958095EC
:1012F00090959B01AC01BD01CF010895EE0FFF1F3A
:101300000590F491E02D0994A29FB001B39FC00114
:10131000A39F700D811D1124911DB29F700D811D21
:101320001124911D08950E948409A59F900DB49FDA
:10133000900DA49F800D911D112408952A0D3B1D31
:101340004C1D5D1D6E1D7F1D801F911F0895002483
:10135000A7FD00942A0F301D401D501D601D701DFB
:10136000801D901D08952A153B054C055D056E05F1
:0C1370007F05800791070895F894FFCFD7
:10137C0050FF50004400414343004947204F4E006A
:10138C00524541445900455600454E4700050472EC
:0A139C0003D10380C0302818383850
:00000001FF
